{"src/contracts/SignalAnchor.sol":{"SignalAnchor":{"abi":[{"anonymous":false,"inputs":[{"indexed":true,"internalType":"string","name":"castHash","type":"string"},{"indexed":false,"internalType":"uint8","name":"verdict","type":"uint8"},{"indexed":false,"internalType":"uint16","name":"confidenceBps","type":"uint16"},{"indexed":false,"internalType":"string","name":"verificationHash","type":"string"},{"indexed":false,"internalType":"string","name":"version","type":"string"},{"indexed":false,"internalType":"uint256","name":"timestamp","type":"uint256"}],"name":"SignalAnchored","type":"event"},{"inputs":[{"internalType":"string","name":"castHash","type":"string"},{"internalType":"uint8","name":"verdict","type":"uint8"},{"internalType":"uint16","name":"confidenceBps","type":"uint16"},{"internalType":"string","name":"verificationHash","type":"string"},{"internalType":"string","name":"version","type":"string"}],"name":"anchor","outputs":[],"stateMutability":"nonpayable","type":"function"}],"evm":{"bytecode":{"linkReferences":{},"object":"608060405234801561001057600080fd5b506104e4806100206000396000f3fe608060405234801561001057600080fd5b506004361061002b5760003560e01c80632a1f3af614610030575b600080fd5b61004a60048036038101906100459190610275565b61004c565b005b8460405161005a91906103b5565b60405180910390207fba8d7aa77b63a58218b5d4ea8a6bea3ac19a276b34968966f588ef82b0ad8a66858585854260405161009995949392919061044d565b60405180910390a25050505050565b6000604051905090565b600080fd5b600080fd5b600080fd5b600080fd5b6000601f19601f8301169050919050565b7f4e487b7100000000000000000000000000000000000000000000000000000000600052604160045260246000fd5b61010f826100c6565b810181811067ffffffffffffffff8211171561012e5761012d6100d7565b5b80604052505050565b60006101416100a8565b905061014d8282610106565b919050565b600067ffffffffffffffff82111561016d5761016c6100d7565b5b610176826100c6565b9050602081019050919050565b82818337600083830152505050565b60006101a56101a084610152565b610137565b9050828152602081018484840111156101c1576101c06100c1565b5b6101cc848285610183565b509392505050565b600082601f8301126101e9576101e86100bc565b5b81356101f9848260208601610192565b91505092915050565b600060ff82169050919050565b61021881610202565b811461022357600080fd5b50565b6000813590506102358161020f565b92915050565b600061ffff82169050919050565b6102528161023b565b811461025d57600080fd5b50565b60008135905061026f81610249565b92915050565b600080600080600060a08688031215610291576102906100b2565b5b600086013567ffffffffffffffff8111156102af576102ae6100b7565b5b6102bb888289016101d4565b95505060206102cc88828901610226565b94505060406102dd88828901610260565b935050606086013567ffffffffffffffff8111156102fe576102fd6100b7565b5b61030a888289016101d4565b925050608086013567ffffffffffffffff81111561032b5761032a6100b7565b5b610337888289016101d4565b9150509295509295909350565b600081519050919050565b600081905092915050565b60005b8381101561037857808201518184015260208101905061035d565b60008484015250505050565b600061038f82610344565b610399818561034f565b93506103a981856020860161035a565b80840191505092915050565b60006103c18284610384565b915081905092915050565b6103d581610202565b82525050565b6103e48161023b565b82525050565b600082825260208201905092915050565b600061040682610344565b61041081856103ea565b935061042081856020860161035a565b610429816100c6565b840191505092915050565b6000819050919050565b61044781610434565b82525050565b600060a08201905061046260008301886103cc565b61046f60208301876103db565b818103604083015261048181866103fb565b9050818103606083015261049581856103fb565b90506104a4608083018461043e565b969550505050505056fea26469706673582212209d27f6e3b24e0f010264de9c8bc95a850c35ef39b079b2829c54d0fa8ae062ff64736f6c63430008140033","opcodes":"PUSH1 0x80 PUSH1 0x40 MSTORE CALLVALUE DUP1 ISZERO PUSH2 0x10 JUMPI PUSH1 0x0 DUP1 REVERT JUMPDEST POP PUSH2 0x4E4 DUP1 PUSH2 0x20 PUSH1 0x0 CODECOPY PUSH1 0x0 RETURN INVALID PUSH1 0x80 PUSH1 0x40 MSTORE CALLVALUE DUP1 ISZERO PUSH2 0x10 JUMPI PUSH1 0x0 DUP1 REVERT JUMPDEST POP PUSH1 0x4 CALLDATASIZE LT PUSH2 0x2B JUMPI PUSH1 0x0 CALLDATALOAD PUSH1 0xE0 SHR DUP1 PUSH4 0x2A1F3AF6 EQ PUSH2 0x30 JUMPI JUMPDEST PUSH1 0x0 DUP1 REVERT JUMPDEST PUSH2 0x4A PUSH1 0x4 DUP1 CALLDATASIZE SUB DUP2 ADD SWAP1 PUSH2 0x45 SWAP2 SWAP1 PUSH2 0x275 JUMP JUMPDEST PUSH2 0x4C JUMP JUMPDEST STOP JUMPDEST DUP5 PUSH1 0x40 MLOAD PUSH2 0x5A SWAP2 SWAP1 PUSH2 0x3B5 JUMP JUMPDEST PUSH1 0x40 MLOAD DUP1 SWAP2 SUB SWAP1 KECCAK256 PUSH32 0xBA8D7AA77B63A58218B5D4EA8A6BEA3AC19A276B34968966F588EF82B0AD8A66 DUP6 DUP6 DUP6 DUP6 TIMESTAMP PUSH1 0x40 MLOAD PUSH2 0x99 SWAP6 SWAP5 SWAP4 SWAP3 SWAP2 SWAP1 PUSH2 0x44D JUMP JUMPDEST PUSH1 0x40 MLOAD DUP1 SWAP2 SUB SWAP1 LOG2 POP POP POP POP POP JUMP JUMPDEST PUSH1 0x0 PUSH1 0x40 MLOAD SWAP1 POP SWAP1 JUMP JUMPDEST PUSH1 0x0 DUP1 REVERT JUMPDEST PUSH1 0x0 DUP1 REVERT JUMPDEST PUSH1 0x0 DUP1 REVERT JUMPDEST PUSH1 0x0 DUP1 REVERT JUMPDEST PUSH1 0x0 PUSH1 0x1F NOT PUSH1 0x1F DUP4 ADD AND SWAP1 POP SWAP2 SWAP1 POP JUMP JUMPDEST PUSH32 0x4E487B7100000000000000000000000000000000000000000000000000000000 PUSH1 0x0 MSTORE PUSH1 0x41 PUSH1 0x4 MSTORE PUSH1 0x24 PUSH1 0x0 REVERT JUMPDEST PUSH2 0x10F DUP3 PUSH2 0xC6 JUMP JUMPDEST DUP2 ADD DUP2 DUP2 LT PUSH8 0xFFFFFFFFFFFFFFFF DUP3 GT OR ISZERO PUSH2 0x12E JUMPI PUSH2 0x12D PUSH2 0xD7 JUMP JUMPDEST JUMPDEST DUP1 PUSH1 0x40 MSTORE POP POP POP JUMP JUMPDEST PUSH1 0x0 PUSH2 0x141 PUSH2 0xA8 JUMP JUMPDEST SWAP1 POP PUSH2 0x14D DUP3 DUP3 PUSH2 0x106 JUMP JUMPDEST SWAP2 SWAP1 POP JUMP JUMPDEST PUSH1 0x0 PUSH8 0xFFFFFFFFFFFFFFFF DUP3 GT ISZERO PUSH2 0x16D JUMPI PUSH2 0x16C PUSH2 0xD7 JUMP JUMPDEST JUMPDEST PUSH2 0x176 DUP3 PUSH2 0xC6 JUMP JUMPDEST SWAP1 POP PUSH1 0x20 DUP2 ADD SWAP1 POP SWAP2 SWAP1 POP JUMP JUMPDEST DUP3 DUP2 DUP4 CALLDATACOPY PUSH1 0x0 DUP4 DUP4 ADD MSTORE POP POP POP JUMP JUMPDEST PUSH1 0x0 PUSH2 0x1A5 PUSH2 0x1A0 DUP5 PUSH2 0x152 JUMP JUMPDEST PUSH2 0x137 JUMP JUMPDEST SWAP1 POP DUP3 DUP2 MSTORE PUSH1 0x20 DUP2 ADD DUP5 DUP5 DUP5 ADD GT ISZERO PUSH2 0x1C1 JUMPI PUSH2 0x1C0 PUSH2 0xC1 JUMP JUMPDEST JUMPDEST PUSH2 0x1CC DUP5 DUP3 DUP6 PUSH2 0x183 JUMP JUMPDEST POP SWAP4 SWAP3 POP POP POP JUMP JUMPDEST PUSH1 0x0 DUP3 PUSH1 0x1F DUP4 ADD SLT PUSH2 0x1E9 JUMPI PUSH2 0x1E8 PUSH2 0xBC JUMP JUMPDEST JUMPDEST DUP2 CALLDATALOAD PUSH2 0x1F9 DUP5 DUP3 PUSH1 0x20 DUP7 ADD PUSH2 0x192 JUMP JUMPDEST SWAP2 POP POP SWAP3 SWAP2 POP POP JUMP JUMPDEST PUSH1 0x0 PUSH1 0xFF DUP3 AND SWAP1 POP SWAP2 SWAP1 POP JUMP JUMPDEST PUSH2 0x218 DUP2 PUSH2 0x202 JUMP JUMPDEST DUP2 EQ PUSH2 0x223 JUMPI PUSH1 0x0 DUP1 REVERT JUMPDEST POP JUMP JUMPDEST PUSH1 0x0 DUP2 CALLDATALOAD SWAP1 POP PUSH2 0x235 DUP2 PUSH2 0x20F JUMP JUMPDEST SWAP3 SWAP2 POP POP JUMP JUMPDEST PUSH1 0x0 PUSH2 0xFFFF DUP3 AND SWAP1 POP SWAP2 SWAP1 POP JUMP JUMPDEST PUSH2 0x252 DUP2 PUSH2 0x23B JUMP JUMPDEST DUP2 EQ PUSH2 0x25D JUMPI PUSH1 0x0 DUP1 REVERT JUMPDEST POP JUMP JUMPDEST PUSH1 0x0 DUP2 CALLDATALOAD SWAP1 POP PUSH2 0x26F DUP2 PUSH2 0x249 JUMP JUMPDEST SWAP3 SWAP2 POP POP JUMP JUMPDEST PUSH1 0x0 DUP1 PUSH1 0x0 DUP1 PUSH1 0x0 PUSH1 0xA0 DUP7 DUP9 SUB SLT ISZERO PUSH2 0x291 JUMPI PUSH2 0x290 PUSH2 0xB2 JUMP JUMPDEST JUMPDEST PUSH1 0x0 DUP7 ADD CALLDATALOAD PUSH8 0xFFFFFFFFFFFFFFFF DUP2 GT ISZERO PUSH2 0x2AF JUMPI PUSH2 0x2AE PUSH2 0xB7 JUMP JUMPDEST JUMPDEST PUSH2 0x2BB DUP9 DUP3 DUP10 ADD PUSH2 0x1D4 JUMP JUMPDEST SWAP6 POP POP PUSH1 0x20 PUSH2 0x2CC DUP9 DUP3 DUP10 ADD PUSH2 0x226 JUMP JUMPDEST SWAP5 POP POP PUSH1 0x40 PUSH2 0x2DD DUP9 DUP3 DUP10 ADD PUSH2 0x260 JUMP JUMPDEST SWAP4 POP POP PUSH1 0x60 DUP7 ADD CALLDATALOAD PUSH8 0xFFFFFFFFFFFFFFFF DUP2 GT ISZERO PUSH2 0x2FE JUMPI PUSH2 0x2FD PUSH2 0xB7 JUMP JUMPDEST JUMPDEST PUSH2 0x30A DUP9 DUP3 DUP10 ADD PUSH2 0x1D4 JUMP JUMPDEST SWAP3 POP POP PUSH1 0x80 DUP7 ADD CALLDATALOAD PUSH8 0xFFFFFFFFFFFFFFFF DUP2 GT ISZERO PUSH2 0x32B JUMPI PUSH2 0x32A PUSH2 0xB7 JUMP JUMPDEST JUMPDEST PUSH2 0x337 DUP9 DUP3 DUP10 ADD PUSH2 0x1D4 JUMP JUMPDEST SWAP2 POP POP SWAP3 SWAP6 POP SWAP3 SWAP6 SWAP1 SWAP4 POP JUMP JUMPDEST PUSH1 0x0 DUP2 MLOAD SWAP1 POP SWAP2 SWAP1 POP JUMP JUMPDEST PUSH1 0x0 DUP2 SWAP1 POP SWAP3 SWAP2 POP POP JUMP JUMPDEST PUSH1 0x0 JUMPDEST DUP4 DUP2 LT ISZERO PUSH2 0x378 JUMPI DUP1 DUP3 ADD MLOAD DUP2 DUP5 ADD MSTORE PUSH1 0x20 DUP2 ADD SWAP1 POP PUSH2 0x35D JUMP JUMPDEST PUSH1 0x0 DUP5 DUP5 ADD MSTORE POP POP POP POP JUMP JUMPDEST PUSH1 0x0 PUSH2 0x38F DUP3 PUSH2 0x344 JUMP JUMPDEST PUSH2 0x399 DUP2 DUP6 PUSH2 0x34F JUMP JUMPDEST SWAP4 POP PUSH2 0x3A9 DUP2 DUP6 PUSH1 0x20 DUP7 ADD PUSH2 0x35A JUMP JUMPDEST DUP1 DUP5 ADD SWAP2 POP POP SWAP3 SWAP2 POP POP JUMP JUMPDEST PUSH1 0x0 PUSH2 0x3C1 DUP3 DUP5 PUSH2 0x384 JUMP JUMPDEST SWAP2 POP DUP2 SWAP1 POP SWAP3 SWAP2 POP POP JUMP JUMPDEST PUSH2 0x3D5 DUP2 PUSH2 0x202 JUMP JUMPDEST DUP3 MSTORE POP POP JUMP JUMPDEST PUSH2 0x3E4 DUP2 PUSH2 0x23B JUMP JUMPDEST DUP3 MSTORE POP POP JUMP JUMPDEST PUSH1 0x0 DUP3 DUP3 MSTORE PUSH1 0x20 DUP3 ADD SWAP1 POP SWAP3 SWAP2 POP POP JUMP JUMPDEST PUSH1 0x0 PUSH2 0x406 DUP3 PUSH2 0x344 JUMP JUMPDEST PUSH2 0x410 DUP2 DUP6 PUSH2 0x3EA JUMP JUMPDEST SWAP4 POP PUSH2 0x420 DUP2 DUP6 PUSH1 0x20 DUP7 ADD PUSH2 0x35A JUMP JUMPDEST PUSH2 0x429 DUP2 PUSH2 0xC6 JUMP JUMPDEST DUP5 ADD SWAP2 POP POP SWAP3 SWAP2 POP POP JUMP JUMPDEST PUSH1 0x0 DUP2 SWAP1 POP SWAP2 SWAP1 POP JUMP JUMPDEST PUSH2 0x447 DUP2 PUSH2 0x434 JUMP JUMPDEST DUP3 MSTORE POP POP JUMP JUMPDEST PUSH1 0x0 PUSH1 0xA0 DUP3 ADD SWAP1 POP PUSH2 0x462 PUSH1 0x0 DUP4 ADD DUP9 PUSH2 0x3CC JUMP JUMPDEST PUSH2 0x46F PUSH1 0x20 DUP4 ADD DUP8 PUSH2 0x3DB JUMP JUMPDEST DUP2 DUP2 SUB PUSH1 0x40 DUP4 ADD MSTORE PUSH2 0x481 DUP2 DUP7 PUSH2 0x3FB JUMP JUMPDEST SWAP1 POP DUP2 DUP2 SUB PUSH1 0x60 DUP4 ADD MSTORE PUSH2 0x495 DUP2 DUP6 PUSH2 0x3FB JUMP JUMPDEST SWAP1 POP PUSH2 0x4A4 PUSH1 0x80 DUP4 ADD DUP5 PUSH2 0x43E JUMP JUMPDEST SWAP7 SWAP6 POP POP POP POP POP POP JUMP INVALID LOG2 PUSH5 0x6970667358 0x22 SLT KECCAK256 SWAP14 0x27 0xF6 0xE3 0xB2 0x4E 0xF ADD MUL PUSH5 0xDE9C8BC95A DUP6 0xC CALLDATALOAD 0xEF CODECOPY 0xB0 PUSH26 0xB2829C54D0FA8AE062FF64736F6C634300081400330000000000 "},"methodIdentifiers":{"anchor(string,uint8,uint16,string,string)":"2a1f3af6"}}}}}