{
  "_format": "hh-sol-artifact-1",
  "contractName": "SignalAnchor",
  "sourceName": "src/contracts/SignalAnchor.sol",
  "abi": [
    {
      "anonymous": false,
      "inputs": [
        {
          "indexed": true,
          "internalType": "string",
          "name": "castHash",
          "type": "string"
        },
        {
          "indexed": false,
          "internalType": "uint8",
          "name": "verdict",
          "type": "uint8"
        },
        {
          "indexed": false,
          "internalType": "uint16",
          "name": "confidenceBps",
          "type": "uint16"
        },
        {
          "indexed": false,
          "internalType": "string",
          "name": "verificationHash",
          "type": "string"
        },
        {
          "indexed": false,
          "internalType": "string",
          "name": "version",
          "type": "string"
        },
        {
          "indexed": false,
          "internalType": "uint256",
          "name": "timestamp",
          "type": "uint256"
        }
      ],
      "name": "SignalAnchored",
      "type": "event"
    },
    {
      "inputs": [
        {
          "internalType": "string",
          "name": "castHash",
          "type": "string"
        },
        {
          "internalType": "uint8",
          "name": "verdict",
          "type": "uint8"
        },
        {
          "internalType": "uint16",
          "name": "confidenceBps",
          "type": "uint16"
        },
        {
          "internalType": "string",
          "name": "verificationHash",
          "type": "string"
        },
        {
          "internalType": "string",
          "name": "version",
          "type": "string"
        }
      ],
      "name": "anchor",
      "outputs": [],
      "stateMutability": "nonpayable",
      "type": "function"
    }
  ],
  "bytecode": "0x608060405234801561001057600080fd5b506104e4806100206000396000f3fe608060405234801561001057600080fd5b506004361061002b5760003560e01c80632a1f3af614610030575b600080fd5b61004a60048036038101906100459190610275565b61004c565b005b8460405161005a91906103b5565b60405180910390207fba8d7aa77b63a58218b5d4ea8a6bea3ac19a276b34968966f588ef82b0ad8a66858585854260405161009995949392919061044d565b60405180910390a25050505050565b6000604051905090565b600080fd5b600080fd5b600080fd5b600080fd5b6000601f19601f8301169050919050565b7f4e487b7100000000000000000000000000000000000000000000000000000000600052604160045260246000fd5b61010f826100c6565b810181811067ffffffffffffffff8211171561012e5761012d6100d7565b5b80604052505050565b60006101416100a8565b905061014d8282610106565b919050565b600067ffffffffffffffff82111561016d5761016c6100d7565b5b610176826100c6565b9050602081019050919050565b82818337600083830152505050565b60006101a56101a084610152565b610137565b9050828152602081018484840111156101c1576101c06100c1565b5b6101cc848285610183565b509392505050565b600082601f8301126101e9576101e86100bc565b5b81356101f9848260208601610192565b91505092915050565b600060ff82169050919050565b61021881610202565b811461022357600080fd5b50565b6000813590506102358161020f565b92915050565b600061ffff82169050919050565b6102528161023b565b811461025d57600080fd5b50565b60008135905061026f81610249565b92915050565b600080600080600060a08688031215610291576102906100b2565b5b600086013567ffffffffffffffff8111156102af576102ae6100b7565b5b6102bb888289016101d4565b95505060206102cc88828901610226565b94505060406102dd88828901610260565b935050606086013567ffffffffffffffff8111156102fe576102fd6100b7565b5b61030a888289016101d4565b925050608086013567ffffffffffffffff81111561032b5761032a6100b7565b5b610337888289016101d4565b9150509295509295909350565b600081519050919050565b600081905092915050565b60005b8381101561037857808201518184015260208101905061035d565b60008484015250505050565b600061038f82610344565b610399818561034f565b93506103a981856020860161035a565b80840191505092915050565b60006103c18284610384565b915081905092915050565b6103d581610202565b82525050565b6103e48161023b565b82525050565b600082825260208201905092915050565b600061040682610344565b61041081856103ea565b935061042081856020860161035a565b610429816100c6565b840191505092915050565b6000819050919050565b61044781610434565b82525050565b600060a08201905061046260008301886103cc565b61046f60208301876103db565b818103604083015261048181866103fb565b9050818103606083015261049581856103fb565b90506104a4608083018461043e565b969550505050505056fea26469706673582212209d27f6e3b24e0f010264de9c8bc95a850c35ef39b079b2829c54d0fa8ae062ff64736f6c63430008140033",
  "linkReferences": {},
  "deployedLinkReferences": {}
}